{
  "_format": "hh-sol-artifact-1",
  "contractName": "Dex",
  "sourceName": "contracts/Dex.sol",
  "abi": [
    {
      "anonymous": false,
      "inputs": [
        {
          "indexed": true,
          "internalType": "address",
          "name": "previousOwner",
          "type": "address"
        },
        {
          "indexed": true,
          "internalType": "address",
          "name": "newOwner",
          "type": "address"
        }
      ],
      "name": "OwnershipTransferred",
      "type": "event"
    },
    {
      "inputs": [
        {
          "internalType": "bytes32",
          "name": "ticker",
          "type": "bytes32"
        },
        {
          "internalType": "address",
          "name": "tokenAddress",
          "type": "address"
        }
      ],
      "name": "addToken",
      "outputs": [],
      "stateMutability": "nonpayable",
      "type": "function"
    },
    {
      "inputs": [
        {
          "internalType": "address",
          "name": "",
          "type": "address"
        },
        {
          "internalType": "bytes32",
          "name": "",
          "type": "bytes32"
        }
      ],
      "name": "balances",
      "outputs": [
        {
          "internalType": "uint256",
          "name": "",
          "type": "uint256"
        }
      ],
      "stateMutability": "view",
      "type": "function"
    },
    {
      "inputs": [
        {
          "internalType": "enum Dex.Side",
          "name": "side",
          "type": "uint8"
        },
        {
          "internalType": "bytes32",
          "name": "ticker",
          "type": "bytes32"
        },
        {
          "internalType": "uint256",
          "name": "amount",
          "type": "uint256"
        },
        {
          "internalType": "uint256",
          "name": "price",
          "type": "uint256"
        }
      ],
      "name": "createLimitOrder",
      "outputs": [],
      "stateMutability": "nonpayable",
      "type": "function"
    },
    {
      "inputs": [
        {
          "internalType": "enum Dex.Side",
          "name": "side",
          "type": "uint8"
        },
        {
          "internalType": "bytes32",
          "name": "ticker",
          "type": "bytes32"
        },
        {
          "internalType": "uint256",
          "name": "amount",
          "type": "uint256"
        }
      ],
      "name": "createMarketOrder",
      "outputs": [],
      "stateMutability": "nonpayable",
      "type": "function"
    },
    {
      "inputs": [
        {
          "internalType": "uint256",
          "name": "amount",
          "type": "uint256"
        },
        {
          "internalType": "bytes32",
          "name": "ticker",
          "type": "bytes32"
        }
      ],
      "name": "deposit",
      "outputs": [],
      "stateMutability": "nonpayable",
      "type": "function"
    },
    {
      "inputs": [],
      "name": "depositETH",
      "outputs": [],
      "stateMutability": "payable",
      "type": "function"
    },
    {
      "inputs": [
        {
          "internalType": "bytes32",
          "name": "_ticker",
          "type": "bytes32"
        },
        {
          "internalType": "enum Dex.Side",
          "name": "_side",
          "type": "uint8"
        }
      ],
      "name": "getOrderBook",
      "outputs": [
        {
          "components": [
            {
              "internalType": "uint256",
              "name": "id",
              "type": "uint256"
            },
            {
              "internalType": "address",
              "name": "trader",
              "type": "address"
            },
            {
              "internalType": "enum Dex.Side",
              "name": "side",
              "type": "uint8"
            },
            {
              "internalType": "bytes32",
              "name": "ticker",
              "type": "bytes32"
            },
            {
              "internalType": "uint256",
              "name": "filled",
              "type": "uint256"
            },
            {
              "internalType": "uint256",
              "name": "amount",
              "type": "uint256"
            },
            {
              "internalType": "uint256",
              "name": "price",
              "type": "uint256"
            }
          ],
          "internalType": "struct Dex.Order[]",
          "name": "orders",
          "type": "tuple[]"
        }
      ],
      "stateMutability": "view",
      "type": "function"
    },
    {
      "inputs": [],
      "name": "nextOrderId",
      "outputs": [
        {
          "internalType": "uint256",
          "name": "",
          "type": "uint256"
        }
      ],
      "stateMutability": "view",
      "type": "function"
    },
    {
      "inputs": [],
      "name": "owner",
      "outputs": [
        {
          "internalType": "address",
          "name": "",
          "type": "address"
        }
      ],
      "stateMutability": "view",
      "type": "function"
    },
    {
      "inputs": [],
      "name": "renounceOwnership",
      "outputs": [],
      "stateMutability": "nonpayable",
      "type": "function"
    },
    {
      "inputs": [
        {
          "internalType": "uint256",
          "name": "",
          "type": "uint256"
        }
      ],
      "name": "tokenList",
      "outputs": [
        {
          "internalType": "bytes32",
          "name": "",
          "type": "bytes32"
        }
      ],
      "stateMutability": "view",
      "type": "function"
    },
    {
      "inputs": [
        {
          "internalType": "bytes32",
          "name": "",
          "type": "bytes32"
        }
      ],
      "name": "tokenMapping",
      "outputs": [
        {
          "internalType": "bytes32",
          "name": "ticker",
          "type": "bytes32"
        },
        {
          "internalType": "address",
          "name": "tokenAddress",
          "type": "address"
        }
      ],
      "stateMutability": "view",
      "type": "function"
    },
    {
      "inputs": [
        {
          "internalType": "address",
          "name": "newOwner",
          "type": "address"
        }
      ],
      "name": "transferOwnership",
      "outputs": [],
      "stateMutability": "nonpayable",
      "type": "function"
    },
    {
      "inputs": [
        {
          "internalType": "uint256",
          "name": "amount",
          "type": "uint256"
        },
        {
          "internalType": "bytes32",
          "name": "ticker",
          "type": "bytes32"
        }
      ],
      "name": "withdraw",
      "outputs": [],
      "stateMutability": "nonpayable",
      "type": "function"
    },
    {
      "inputs": [
        {
          "internalType": "uint256",
          "name": "amount",
          "type": "uint256"
        }
      ],
      "name": "withdrawETH",
      "outputs": [],
      "stateMutability": "nonpayable",
      "type": "function"
    }
  ],
  "bytecode": "0x608060405260006004553480156200001657600080fd5b50620000376200002b6200003d60201b60201c565b6200004560201b60201c565b62000109565b600033905090565b60008060009054906101000a900473ffffffffffffffffffffffffffffffffffffffff169050816000806101000a81548173ffffffffffffffffffffffffffffffffffffffff021916908373ffffffffffffffffffffffffffffffffffffffff1602179055508173ffffffffffffffffffffffffffffffffffffffff168173ffffffffffffffffffffffffffffffffffffffff167f8be0079c531659141344cd1fd0a4f28419497f9722a3daafe3b4186f6b6457e060405160405180910390a35050565b6138ff80620001196000396000f3fe6080604052600436106100e85760003560e01c806399ec2f1c1161008a578063c9630cb011610059578063c9630cb0146102f3578063f14210a61461031c578063f2fde38b14610345578063f6326fb31461036e576100e8565b806399ec2f1c146102275780639ead722214610250578063a8d2021a1461028d578063ba58ea68146102b6576100e8565b80636f3b62f9116100c65780636f3b62f914610193578063715018a6146101bc5780638da5cb5b146101d35780639776aacf146101fe576100e8565b80631f14df69146100ed5780632a58b3301461012a578063667cb4ba14610155575b600080fd5b3480156100f957600080fd5b50610114600480360381019061010f9190612d2e565b610378565b6040516101219190612d87565b60405180910390f35b34801561013657600080fd5b5061013f61039d565b60405161014c9190612d87565b60405180910390f35b34801561016157600080fd5b5061017c60048036038101906101779190612da2565b6103a3565b60405161018a929190612ded565b60405180910390f35b34801561019f57600080fd5b506101ba60048036038101906101b59190612e67565b6103e7565b005b3480156101c857600080fd5b506101d1610e9a565b005b3480156101df57600080fd5b506101e8610f22565b6040516101f59190612ece565b60405180910390f35b34801561020a57600080fd5b5061022560048036038101906102209190612ee9565b610f4b565b005b34801561023357600080fd5b5061024e60048036038101906102499190612f29565b611086565b005b34801561025c57600080fd5b5061027760048036038101906102729190612f7c565b6120d9565b6040516102849190612fa9565b60405180910390f35b34801561029957600080fd5b506102b460048036038101906102af9190612fc4565b6120fd565b005b3480156102c257600080fd5b506102dd60048036038101906102d89190613004565b6123a7565b6040516102ea9190613225565b60405180910390f35b3480156102ff57600080fd5b5061031a60048036038101906103159190612fc4565b612500565b005b34801561032857600080fd5b50610343600480360381019061033e9190612f7c565b612719565b005b34801561035157600080fd5b5061036c60048036038101906103679190613247565b61292f565b005b610376612a26565b005b6003602052816000526040600020602052806000526040600020600091509150505481565b60045481565b60026020528060005260406000206000915090508060000154908060010160009054906101000a900473ffffffffffffffffffffffffffffffffffffffff16905082565b600060018111156103fb576103fa61308e565b5b84600181111561040e5761040d61308e565b5b036104dd576104268183612b1f90919063ffffffff16565b600360003373ffffffffffffffffffffffffffffffffffffffff1673ffffffffffffffffffffffffffffffffffffffff16815260200190815260200160002060007f455448000000000000000000000000000000000000000000000000000000000081526020019081526020016000205410156104d8576040517f08c379a00000000000000000000000000000000000000000000000000000000081526004016104cf906132d1565b60405180910390fd5b61059d565b6001808111156104f0576104ef61308e565b5b8460018111156105035761050261308e565b5b0361059c5781600360003373ffffffffffffffffffffffffffffffffffffffff1673ffffffffffffffffffffffffffffffffffffffff168152602001908152602001600020600085815260200190815260200160002054101561059b576040517f08c379a00000000000000000000000000000000000000000000000000000000081526004016105929061333d565b60405180910390fd5b5b5b60006005600085815260200190815260200160002060008660018111156105c7576105c661308e565b5b81526020019081526020016000209050806040518060e0016040528060045481526020013373ffffffffffffffffffffffffffffffffffffffff16815260200187600181111561061a5761061961308e565b5b8152602001868152602001600081526020018581526020018481525090806001815401808255809150506001900390600052602060002090600602016000909190919091506000820151816000015560208201518160010160006101000a81548173ffffffffffffffffffffffffffffffffffffffff021916908373ffffffffffffffffffffffffffffffffffffffff16021790555060408201518160010160146101000a81548160ff021916908360018111156106db576106da61308e565b5b0217905550606082015181600201556080820151816003015560a0820151816004015560c08201518160050155505060008082805490501161071e576000610730565b6001828054905061072f919061338c565b5b9050600060018111156107465761074561308e565b5b8660018111156107595761075861308e565b5b03610ad8575b6000811115610ad35781600182610776919061338c565b81548110610787576107866133c0565b5b9060005260206000209060060201600501548282815481106107ac576107ab6133c0565b5b9060005260206000209060060201600501541115610ac0576107cc612c2d565b8282815481106107df576107de6133c0565b5b90600052602060002090600602016040518060e0016040529081600082015481526020016001820160009054906101000a900473ffffffffffffffffffffffffffffffffffffffff1673ffffffffffffffffffffffffffffffffffffffff1673ffffffffffffffffffffffffffffffffffffffff1681526020016001820160149054906101000a900460ff16600181111561087d5761087c61308e565b5b600181111561088f5761088e61308e565b5b81526020016002820154815260200160038201548152602001600482015481526020016005820154815250509050826001836108cb919061338c565b815481106108dc576108db6133c0565b5b90600052602060002090600602018383815481106108fd576108fc6133c0565b5b9060005260206000209060060201600082015481600001556001820160009054906101000a900473ffffffffffffffffffffffffffffffffffffffff168160010160006101000a81548173ffffffffffffffffffffffffffffffffffffffff021916908373ffffffffffffffffffffffffffffffffffffffff1602179055506001820160149054906101000a900460ff168160010160146101000a81548160ff021916908360018111156109b4576109b361308e565b5b02179055506002820154816002015560038201548160030155600482015481600401556005820154816005015590505080836001846109f3919061338c565b81548110610a0457610a036133c0565b5b90600052602060002090600602016000820151816000015560208201518160010160006101000a81548173ffffffffffffffffffffffffffffffffffffffff021916908373ffffffffffffffffffffffffffffffffffffffff16021790555060408201518160010160146101000a81548160ff02191690836001811115610a8e57610a8d61308e565b5b0217905550606082015181600201556080820151816003015560a0820151816004015560c08201518160050155905050505b8080610acb906133ef565b91505061075f565b610e7a565b600180811115610aeb57610aea61308e565b5b866001811115610afe57610afd61308e565b5b03610e79575b6000811115610e785781600182610b1b919061338c565b81548110610b2c57610b2b6133c0565b5b906000526020600020906006020160050154828281548110610b5157610b506133c0565b5b9060005260206000209060060201600501541015610e6557610b71612c2d565b828281548110610b8457610b836133c0565b5b90600052602060002090600602016040518060e0016040529081600082015481526020016001820160009054906101000a900473ffffffffffffffffffffffffffffffffffffffff1673ffffffffffffffffffffffffffffffffffffffff1673ffffffffffffffffffffffffffffffffffffffff1681526020016001820160149054906101000a900460ff166001811115610c2257610c2161308e565b5b6001811115610c3457610c3361308e565b5b8152602001600282015481526020016003820154815260200160048201548152602001600582015481525050905082600183610c70919061338c565b81548110610c8157610c806133c0565b5b9060005260206000209060060201838381548110610ca257610ca16133c0565b5b9060005260206000209060060201600082015481600001556001820160009054906101000a900473ffffffffffffffffffffffffffffffffffffffff168160010160006101000a81548173ffffffffffffffffffffffffffffffffffffffff021916908373ffffffffffffffffffffffffffffffffffffffff1602179055506001820160149054906101000a900460ff168160010160146101000a81548160ff02191690836001811115610d5957610d5861308e565b5b0217905550600282015481600201556003820154816003015560048201548160040155600582015481600501559050508083600184610d98919061338c565b81548110610da957610da86133c0565b5b90600052602060002090600602016000820151816000015560208201518160010160006101000a81548173ffffffffffffffffffffffffffffffffffffffff021916908373ffffffffffffffffffffffffffffffffffffffff16021790555060408201518160010160146101000a81548160ff02191690836001811115610e3357610e3261308e565b5b0217905550606082015181600201556080820151816003015560a0820151816004015560c08201518160050155905050505b8080610e70906133ef565b915050610b04565b5b5b60046000815480929190610e8d90613418565b9190505550505050505050565b610ea2612b35565b73ffffffffffffffffffffffffffffffffffffffff16610ec0610f22565b73ffffffffffffffffffffffffffffffffffffffff1614610f16576040517f08c379a0000000000000000000000000000000000000000000000000000000008152600401610f0d906134ac565b60405180910390fd5b610f206000612b3d565b565b60008060009054906101000a900473ffffffffffffffffffffffffffffffffffffffff16905090565b610f53612b35565b73ffffffffffffffffffffffffffffffffffffffff16610f71610f22565b73ffffffffffffffffffffffffffffffffffffffff1614610fc7576040517f08c379a0000000000000000000000000000000000000000000000000000000008152600401610fbe906134ac565b60405180910390fd5b60405180604001604052808381526020018273ffffffffffffffffffffffffffffffffffffffff16815250600260008481526020019081526020016000206000820151816000015560208201518160010160006101000a81548173ffffffffffffffffffffffffffffffffffffffff021916908373ffffffffffffffffffffffffffffffffffffffff16021790555090505060018290806001815401808255809150506001900390600052602060002001600090919091909150555050565b6001808111156110995761109861308e565b5b8360018111156110ac576110ab61308e565b5b036111455780600360003373ffffffffffffffffffffffffffffffffffffffff1673ffffffffffffffffffffffffffffffffffffffff1681526020019081526020016000206000848152602001908152602001600020541015611144576040517f08c379a000000000000000000000000000000000000000000000000000000000815260040161113b90613518565b60405180910390fd5b5b600060056000848152602001908152602001600020600080600181111561116f5761116e61308e565b5b8660018111156111825761118161308e565b5b1461118e576000611191565b60015b60ff168152602001908152602001600020905060008060005b8380549050811080156111bc57508483105b15611d625760008482815481106111d6576111d56133c0565b5b9060005260206000209060060201600301548583815481106111fb576111fa6133c0565b5b906000526020600020906006020160040154611217919061338c565b905061122c8185612c0190919063ffffffff16565b9350600060018111156112425761124161308e565b5b8860018111156112555761125461308e565b5b036117ea576112918583815481106112705761126f6133c0565b5b90600052602060002090600602016005015487612b1f90919063ffffffff16565b600360003373ffffffffffffffffffffffffffffffffffffffff1673ffffffffffffffffffffffffffffffffffffffff16815260200190815260200160002060007f4554480000000000000000000000000000000000000000000000000000000000815260200190815260200160002054101561130d57600080fd5b61137081600360003373ffffffffffffffffffffffffffffffffffffffff1673ffffffffffffffffffffffffffffffffffffffff16815260200190815260200160002060008a815260200190815260200160002054612c0190919063ffffffff16565b600360003373ffffffffffffffffffffffffffffffffffffffff1673ffffffffffffffffffffffffffffffffffffffff16815260200190815260200160002060008981526020019081526020016000208190555061147d6113fe8684815481106113dd576113dc6133c0565b5b90600052602060002090600602016005015483612b1f90919063ffffffff16565b600360003373ffffffffffffffffffffffffffffffffffffffff1673ffffffffffffffffffffffffffffffffffffffff16815260200190815260200160002060007f4554480000000000000000000000000000000000000000000000000000000000815260200190815260200160002054612c1790919063ffffffff16565b600360003373ffffffffffffffffffffffffffffffffffffffff1673ffffffffffffffffffffffffffffffffffffffff16815260200190815260200160002060007f4554480000000000000000000000000000000000000000000000000000000000815260200190815260200160002081905550611598816003600088868154811061150c5761150b6133c0565b5b906000526020600020906006020160010160009054906101000a900473ffffffffffffffffffffffffffffffffffffffff1673ffffffffffffffffffffffffffffffffffffffff1673ffffffffffffffffffffffffffffffffffffffff16815260200190815260200160002060008a815260200190815260200160002054612c1790919063ffffffff16565b600360008785815481106115af576115ae6133c0565b5b906000526020600020906006020160010160009054906101000a900473ffffffffffffffffffffffffffffffffffffffff1673ffffffffffffffffffffffffffffffffffffffff1673ffffffffffffffffffffffffffffffffffffffff16815260200190815260200160002060008981526020019081526020016000208190555061172d61166a868481548110611649576116486133c0565b5b90600052602060002090600602016005015483612b1f90919063ffffffff16565b60036000888681548110611681576116806133c0565b5b906000526020600020906006020160010160009054906101000a900473ffffffffffffffffffffffffffffffffffffffff1673ffffffffffffffffffffffffffffffffffffffff1673ffffffffffffffffffffffffffffffffffffffff16815260200190815260200160002060007f4554480000000000000000000000000000000000000000000000000000000000815260200190815260200160002054612c0190919063ffffffff16565b60036000878581548110611744576117436133c0565b5b906000526020600020906006020160010160009054906101000a900473ffffffffffffffffffffffffffffffffffffffff1673ffffffffffffffffffffffffffffffffffffffff1673ffffffffffffffffffffffffffffffffffffffff16815260200190815260200160002060007f4554480000000000000000000000000000000000000000000000000000000000815260200190815260200160002081905550611cef565b6001808111156117fd576117fc61308e565b5b8860018111156118105761180f61308e565b5b03611cee5761187881600360003373ffffffffffffffffffffffffffffffffffffffff1673ffffffffffffffffffffffffffffffffffffffff16815260200190815260200160002060008a815260200190815260200160002054612c1790919063ffffffff16565b600360003373ffffffffffffffffffffffffffffffffffffffff1673ffffffffffffffffffffffffffffffffffffffff1681526020019081526020016000206000898152602001908152602001600020819055506119856119068684815481106118e5576118e46133c0565b5b90600052602060002090600602016005015483612b1f90919063ffffffff16565b600360003373ffffffffffffffffffffffffffffffffffffffff1673ffffffffffffffffffffffffffffffffffffffff16815260200190815260200160002060007f4554480000000000000000000000000000000000000000000000000000000000815260200190815260200160002054612c0190919063ffffffff16565b600360003373ffffffffffffffffffffffffffffffffffffffff1673ffffffffffffffffffffffffffffffffffffffff16815260200190815260200160002060007f4554480000000000000000000000000000000000000000000000000000000000815260200190815260200160002081905550611aa08160036000888681548110611a1457611a136133c0565b5b906000526020600020906006020160010160009054906101000a900473ffffffffffffffffffffffffffffffffffffffff1673ffffffffffffffffffffffffffffffffffffffff1673ffffffffffffffffffffffffffffffffffffffff16815260200190815260200160002060008a815260200190815260200160002054612c0190919063ffffffff16565b60036000878581548110611ab757611ab66133c0565b5b906000526020600020906006020160010160009054906101000a900473ffffffffffffffffffffffffffffffffffffffff1673ffffffffffffffffffffffffffffffffffffffff1673ffffffffffffffffffffffffffffffffffffffff168152602001908152602001600020600089815260200190815260200160002081905550611c35611b72868481548110611b5157611b506133c0565b5b90600052602060002090600602016005015483612b1f90919063ffffffff16565b60036000888681548110611b8957611b886133c0565b5b906000526020600020906006020160010160009054906101000a900473ffffffffffffffffffffffffffffffffffffffff1673ffffffffffffffffffffffffffffffffffffffff1673ffffffffffffffffffffffffffffffffffffffff16815260200190815260200160002060007f4554480000000000000000000000000000000000000000000000000000000000815260200190815260200160002054612c1790919063ffffffff16565b60036000878581548110611c4c57611c4b6133c0565b5b906000526020600020906006020160010160009054906101000a900473ffffffffffffffffffffffffffffffffffffffff1673ffffffffffffffffffffffffffffffffffffffff1673ffffffffffffffffffffffffffffffffffffffff16815260200190815260200160002060007f45544800000000000000000000000000000000000000000000000000000000008152602001908152602001600020819055505b5b611d2681868481548110611d0657611d056133c0565b5b906000526020600020906006020160030154612c0190919063ffffffff16565b858381548110611d3957611d386133c0565b5b906000526020600020906006020160030181905550508080611d5a90613418565b9150506111aa565b5060005b83805490508110156120d057838181548110611d8557611d846133c0565b5b906000526020600020906006020160040154848281548110611daa57611da96133c0565b5b906000526020600020906006020160030154036120bd57611dc9612c2d565b84600183611dd79190613538565b81548110611de857611de76133c0565b5b90600052602060002090600602016040518060e0016040529081600082015481526020016001820160009054906101000a900473ffffffffffffffffffffffffffffffffffffffff1673ffffffffffffffffffffffffffffffffffffffff1673ffffffffffffffffffffffffffffffffffffffff1681526020016001820160149054906101000a900460ff166001811115611e8657611e8561308e565b5b6001811115611e9857611e9761308e565b5b81526020016002820154815260200160038201548152602001600482015481526020016005820154815250509050848281548110611ed957611ed86133c0565b5b906000526020600020906006020185600184611ef59190613538565b81548110611f0657611f056133c0565b5b9060005260206000209060060201600082015481600001556001820160009054906101000a900473ffffffffffffffffffffffffffffffffffffffff168160010160006101000a81548173ffffffffffffffffffffffffffffffffffffffff021916908373ffffffffffffffffffffffffffffffffffffffff1602179055506001820160149054906101000a900460ff168160010160146101000a81548160ff02191690836001811115611fbd57611fbc61308e565b5b02179055506002820154816002015560038201548160030155600482015481600401556005820154816005015590505080858381548110612001576120006133c0565b5b90600052602060002090600602016000820151816000015560208201518160010160006101000a81548173ffffffffffffffffffffffffffffffffffffffff021916908373ffffffffffffffffffffffffffffffffffffffff16021790555060408201518160010160146101000a81548160ff0219169083600181111561208b5761208a61308e565b5b0217905550606082015181600201556080820151816003015560a0820151816004015560c08201518160050155905050505b80806120c890613418565b915050611d66565b50505050505050565b600181815481106120e957600080fd5b906000526020600020016000915090505481565b80600073ffffffffffffffffffffffffffffffffffffffff166002600083815260200190815260200160002060010160009054906101000a900473ffffffffffffffffffffffffffffffffffffffff1673ffffffffffffffffffffffffffffffffffffffff16036121a3576040517f08c379a000000000000000000000000000000000000000000000000000000000815260040161219a906135da565b60405180910390fd5b82600360003373ffffffffffffffffffffffffffffffffffffffff1673ffffffffffffffffffffffffffffffffffffffff1681526020019081526020016000206000848152602001908152602001600020541015612236576040517f08c379a000000000000000000000000000000000000000000000000000000000815260040161222d90613646565b60405180910390fd5b61229983600360003373ffffffffffffffffffffffffffffffffffffffff1673ffffffffffffffffffffffffffffffffffffffff168152602001908152602001600020600085815260200190815260200160002054612c1790919063ffffffff16565b600360003373ffffffffffffffffffffffffffffffffffffffff1673ffffffffffffffffffffffffffffffffffffffff1681526020019081526020016000206000848152602001908152602001600020819055506002600083815260200190815260200160002060010160009054906101000a900473ffffffffffffffffffffffffffffffffffffffff1673ffffffffffffffffffffffffffffffffffffffff1663a9059cbb33856040518363ffffffff1660e01b815260040161235e929190613666565b6020604051808303816000875af115801561237d573d6000803e3d6000fd5b505050506040513d601f19601f820116820180604052508101906123a191906136c7565b50505050565b60606005600084815260200190815260200160002060008360018111156123d1576123d061308e565b5b8152602001908152602001600020805480602002602001604051908101604052809291908181526020016000905b828210156124f457838290600052602060002090600602016040518060e0016040529081600082015481526020016001820160009054906101000a900473ffffffffffffffffffffffffffffffffffffffff1673ffffffffffffffffffffffffffffffffffffffff1673ffffffffffffffffffffffffffffffffffffffff1681526020016001820160149054906101000a900460ff1660018111156124a7576124a661308e565b5b60018111156124b9576124b861308e565b5b8152602001600282015481526020016003820154815260200160048201548152602001600582015481525050815260200190600101906123ff565b50505050905092915050565b80600073ffffffffffffffffffffffffffffffffffffffff166002600083815260200190815260200160002060010160009054906101000a900473ffffffffffffffffffffffffffffffffffffffff1673ffffffffffffffffffffffffffffffffffffffff16036125a6576040517f08c379a000000000000000000000000000000000000000000000000000000000815260040161259d906135da565b60405180910390fd5b6002600083815260200190815260200160002060010160009054906101000a900473ffffffffffffffffffffffffffffffffffffffff1673ffffffffffffffffffffffffffffffffffffffff166323b872dd3330866040518463ffffffff1660e01b8152600401612619939291906136f4565b6020604051808303816000875af1158015612638573d6000803e3d6000fd5b505050506040513d601f19601f8201168201806040525081019061265c91906136c7565b506126c083600360003373ffffffffffffffffffffffffffffffffffffffff1673ffffffffffffffffffffffffffffffffffffffff168152602001908152602001600020600085815260200190815260200160002054612c0190919063ffffffff16565b600360003373ffffffffffffffffffffffffffffffffffffffff1673ffffffffffffffffffffffffffffffffffffffff168152602001908152602001600020600084815260200190815260200160002081905550505050565b80600360003373ffffffffffffffffffffffffffffffffffffffff1673ffffffffffffffffffffffffffffffffffffffff16815260200190815260200160002060007f455448000000000000000000000000000000000000000000000000000000000081526020019081526020016000205410156127cc576040517f08c379a00000000000000000000000000000000000000000000000000000000081526004016127c390613777565b60405180910390fd5b61284f81600360003373ffffffffffffffffffffffffffffffffffffffff1673ffffffffffffffffffffffffffffffffffffffff16815260200190815260200160002060007f4554480000000000000000000000000000000000000000000000000000000000815260200190815260200160002054612c1790919063ffffffff16565b600360003373ffffffffffffffffffffffffffffffffffffffff1673ffffffffffffffffffffffffffffffffffffffff16815260200190815260200160002060007f45544800000000000000000000000000000000000000000000000000000000008152602001908152602001600020819055503373ffffffffffffffffffffffffffffffffffffffff16816040516128e7906137c8565b60006040518083038185875af1925050503d8060008114612924576040519150601f19603f3d011682016040523d82523d6000602084013e612929565b606091505b50505050565b612937612b35565b73ffffffffffffffffffffffffffffffffffffffff16612955610f22565b73ffffffffffffffffffffffffffffffffffffffff16146129ab576040517f08c379a00000000000000000000000000000000000000000000000000000000081526004016129a2906134ac565b60405180910390fd5b600073ffffffffffffffffffffffffffffffffffffffff168173ffffffffffffffffffffffffffffffffffffffff1603612a1a576040517f08c379a0000000000000000000000000000000000000000000000000000000008152600401612a119061384f565b60405180910390fd5b612a2381612b3d565b50565b612aa934600360003373ffffffffffffffffffffffffffffffffffffffff1673ffffffffffffffffffffffffffffffffffffffff16815260200190815260200160002060007f4554480000000000000000000000000000000000000000000000000000000000815260200190815260200160002054612c0190919063ffffffff16565b600360003373ffffffffffffffffffffffffffffffffffffffff1673ffffffffffffffffffffffffffffffffffffffff16815260200190815260200160002060007f4554480000000000000000000000000000000000000000000000000000000000815260200190815260200160002081905550565b60008183612b2d919061386f565b905092915050565b600033905090565b60008060009054906101000a900473ffffffffffffffffffffffffffffffffffffffff169050816000806101000a81548173ffffffffffffffffffffffffffffffffffffffff021916908373ffffffffffffffffffffffffffffffffffffffff1602179055508173ffffffffffffffffffffffffffffffffffffffff168173ffffffffffffffffffffffffffffffffffffffff167f8be0079c531659141344cd1fd0a4f28419497f9722a3daafe3b4186f6b6457e060405160405180910390a35050565b60008183612c0f9190613538565b905092915050565b60008183612c25919061338c565b905092915050565b6040518060e0016040528060008152602001600073ffffffffffffffffffffffffffffffffffffffff16815260200160006001811115612c7057612c6f61308e565b5b8152602001600080191681526020016000815260200160008152602001600081525090565b600080fd5b600073ffffffffffffffffffffffffffffffffffffffff82169050919050565b6000612cc582612c9a565b9050919050565b612cd581612cba565b8114612ce057600080fd5b50565b600081359050612cf281612ccc565b92915050565b6000819050919050565b612d0b81612cf8565b8114612d1657600080fd5b50565b600081359050612d2881612d02565b92915050565b60008060408385031215612d4557612d44612c95565b5b6000612d5385828601612ce3565b9250506020612d6485828601612d19565b9150509250929050565b6000819050919050565b612d8181612d6e565b82525050565b6000602082019050612d9c6000830184612d78565b92915050565b600060208284031215612db857612db7612c95565b5b6000612dc684828501612d19565b91505092915050565b612dd881612cf8565b82525050565b612de781612cba565b82525050565b6000604082019050612e026000830185612dcf565b612e0f6020830184612dde565b9392505050565b60028110612e2357600080fd5b50565b600081359050612e3581612e16565b92915050565b612e4481612d6e565b8114612e4f57600080fd5b50565b600081359050612e6181612e3b565b92915050565b60008060008060808587031215612e8157612e80612c95565b5b6000612e8f87828801612e26565b9450506020612ea087828801612d19565b9350506040612eb187828801612e52565b9250506060612ec287828801612e52565b91505092959194509250565b6000602082019050612ee36000830184612dde565b92915050565b60008060408385031215612f0057612eff612c95565b5b6000612f0e85828601612d19565b9250506020612f1f85828601612ce3565b9150509250929050565b600080600060608486031215612f4257612f41612c95565b5b6000612f5086828701612e26565b9350506020612f6186828701612d19565b9250506040612f7286828701612e52565b9150509250925092565b600060208284031215612f9257612f91612c95565b5b6000612fa084828501612e52565b91505092915050565b6000602082019050612fbe6000830184612dcf565b92915050565b60008060408385031215612fdb57612fda612c95565b5b6000612fe985828601612e52565b9250506020612ffa85828601612d19565b9150509250929050565b6000806040838503121561301b5761301a612c95565b5b600061302985828601612d19565b925050602061303a85828601612e26565b9150509250929050565b600081519050919050565b600082825260208201905092915050565b6000819050602082019050919050565b61307981612d6e565b82525050565b61308881612cba565b82525050565b7f4e487b7100000000000000000000000000000000000000000000000000000000600052602160045260246000fd5b600281106130ce576130cd61308e565b5b50565b60008190506130df826130bd565b919050565b60006130ef826130d1565b9050919050565b6130ff816130e4565b82525050565b61310e81612cf8565b82525050565b60e08201600082015161312a6000850182613070565b50602082015161313d602085018261307f565b50604082015161315060408501826130f6565b5060608201516131636060850182613105565b5060808201516131766080850182613070565b5060a082015161318960a0850182613070565b5060c082015161319c60c0850182613070565b50505050565b60006131ae8383613114565b60e08301905092915050565b6000602082019050919050565b60006131d282613044565b6131dc818561304f565b93506131e783613060565b8060005b838110156132185781516131ff88826131a2565b975061320a836131ba565b9250506001810190506131eb565b5085935050505092915050565b6000602082019050818103600083015261323f81846131c7565b905092915050565b60006020828403121561325d5761325c612c95565b5b600061326b84828501612ce3565b91505092915050565b600082825260208201905092915050565b7f4e6f7420656e6f75676820455448206465706f73697465640000000000000000600082015250565b60006132bb601883613274565b91506132c682613285565b602082019050919050565b600060208201905081810360008301526132ea816132ae565b9050919050565b7f4e6f7420656e6f75676820746f6b656e73206465706f73697465640000000000600082015250565b6000613327601b83613274565b9150613332826132f1565b602082019050919050565b600060208201905081810360008301526133568161331a565b9050919050565b7f4e487b7100000000000000000000000000000000000000000000000000000000600052601160045260246000fd5b600061339782612d6e565b91506133a283612d6e565b9250828210156133b5576133b461335d565b5b828203905092915050565b7f4e487b7100000000000000000000000000000000000000000000000000000000600052603260045260246000fd5b60006133fa82612d6e565b91506000820361340d5761340c61335d565b5b600182039050919050565b600061342382612d6e565b91507fffffffffffffffffffffffffffffffffffffffffffffffffffffffffffffffff82036134555761345461335d565b5b600182019050919050565b7f4f776e61626c653a2063616c6c6572206973206e6f7420746865206f776e6572600082015250565b6000613496602083613274565b91506134a182613460565b602082019050919050565b600060208201905081810360008301526134c581613489565b9050919050565b7f4e6f7420656e6f75676820746f6b656e7320666f722074726164650000000000600082015250565b6000613502601b83613274565b915061350d826134cc565b602082019050919050565b60006020820190508181036000830152613531816134f5565b9050919050565b600061354382612d6e565b915061354e83612d6e565b9250827fffffffffffffffffffffffffffffffffffffffffffffffffffffffffffffffff038211156135835761358261335d565b5b828201905092915050565b7f546f6b656e20646f6573206e6f74206578697374000000000000000000000000600082015250565b60006135c4601483613274565b91506135cf8261358e565b602082019050919050565b600060208201905081810360008301526135f3816135b7565b9050919050565b7f42616c616e6365206973206e6f742073756666696369656e7400000000000000600082015250565b6000613630601983613274565b915061363b826135fa565b602082019050919050565b6000602082019050818103600083015261365f81613623565b9050919050565b600060408201905061367b6000830185612dde565b6136886020830184612d78565b9392505050565b60008115159050919050565b6136a48161368f565b81146136af57600080fd5b50565b6000815190506136c18161369b565b92915050565b6000602082840312156136dd576136dc612c95565b5b60006136eb848285016136b2565b91505092915050565b60006060820190506137096000830186612dde565b6137166020830185612dde565b6137236040830184612d78565b949350505050565b7f4e6f7420656e6f7567682062616c616e63650000000000000000000000000000600082015250565b6000613761601283613274565b915061376c8261372b565b602082019050919050565b6000602082019050818103600083015261379081613754565b9050919050565b600081905092915050565b50565b60006137b2600083613797565b91506137bd826137a2565b600082019050919050565b60006137d3826137a5565b9150819050919050565b7f4f776e61626c653a206e6577206f776e657220697320746865207a65726f206160008201527f6464726573730000000000000000000000000000000000000000000000000000602082015250565b6000613839602683613274565b9150613844826137dd565b604082019050919050565b600060208201905081810360008301526138688161382c565b9050919050565b600061387a82612d6e565b915061388583612d6e565b9250817fffffffffffffffffffffffffffffffffffffffffffffffffffffffffffffffff04831182151516156138be576138bd61335d565b5b82820290509291505056fea26469706673582212202d7f52d5301d7b8fdbaa83c2367053adef151f98ee2bc8e3b6b51fc8f3996f6c64736f6c634300080d0033",
  "linkReferences": {},
  "deployedLinkReferences": {}
}