{
  "_format": "hh-sol-artifact-1",
  "contractName": "Wallet",
  "sourceName": "contracts/Wallet.sol",
  "abi": [
    {
      "anonymous": false,
      "inputs": [
        {
          "indexed": true,
          "internalType": "address",
          "name": "previousOwner",
          "type": "address"
        },
        {
          "indexed": true,
          "internalType": "address",
          "name": "newOwner",
          "type": "address"
        }
      ],
      "name": "OwnershipTransferred",
      "type": "event"
    },
    {
      "inputs": [
        {
          "internalType": "bytes32",
          "name": "ticker",
          "type": "bytes32"
        },
        {
          "internalType": "address",
          "name": "tokenAddress",
          "type": "address"
        }
      ],
      "name": "addToken",
      "outputs": [],
      "stateMutability": "nonpayable",
      "type": "function"
    },
    {
      "inputs": [
        {
          "internalType": "address",
          "name": "",
          "type": "address"
        },
        {
          "internalType": "bytes32",
          "name": "",
          "type": "bytes32"
        }
      ],
      "name": "balances",
      "outputs": [
        {
          "internalType": "uint256",
          "name": "",
          "type": "uint256"
        }
      ],
      "stateMutability": "view",
      "type": "function"
    },
    {
      "inputs": [
        {
          "internalType": "uint256",
          "name": "amount",
          "type": "uint256"
        },
        {
          "internalType": "bytes32",
          "name": "ticker",
          "type": "bytes32"
        }
      ],
      "name": "deposit",
      "outputs": [],
      "stateMutability": "nonpayable",
      "type": "function"
    },
    {
      "inputs": [],
      "name": "depositETH",
      "outputs": [],
      "stateMutability": "payable",
      "type": "function"
    },
    {
      "inputs": [],
      "name": "owner",
      "outputs": [
        {
          "internalType": "address",
          "name": "",
          "type": "address"
        }
      ],
      "stateMutability": "view",
      "type": "function"
    },
    {
      "inputs": [],
      "name": "renounceOwnership",
      "outputs": [],
      "stateMutability": "nonpayable",
      "type": "function"
    },
    {
      "inputs": [
        {
          "internalType": "uint256",
          "name": "",
          "type": "uint256"
        }
      ],
      "name": "tokenList",
      "outputs": [
        {
          "internalType": "bytes32",
          "name": "",
          "type": "bytes32"
        }
      ],
      "stateMutability": "view",
      "type": "function"
    },
    {
      "inputs": [
        {
          "internalType": "bytes32",
          "name": "",
          "type": "bytes32"
        }
      ],
      "name": "tokenMapping",
      "outputs": [
        {
          "internalType": "bytes32",
          "name": "ticker",
          "type": "bytes32"
        },
        {
          "internalType": "address",
          "name": "tokenAddress",
          "type": "address"
        }
      ],
      "stateMutability": "view",
      "type": "function"
    },
    {
      "inputs": [
        {
          "internalType": "address",
          "name": "newOwner",
          "type": "address"
        }
      ],
      "name": "transferOwnership",
      "outputs": [],
      "stateMutability": "nonpayable",
      "type": "function"
    },
    {
      "inputs": [
        {
          "internalType": "uint256",
          "name": "amount",
          "type": "uint256"
        },
        {
          "internalType": "bytes32",
          "name": "ticker",
          "type": "bytes32"
        }
      ],
      "name": "withdraw",
      "outputs": [],
      "stateMutability": "nonpayable",
      "type": "function"
    },
    {
      "inputs": [
        {
          "internalType": "uint256",
          "name": "amount",
          "type": "uint256"
        }
      ],
      "name": "withdrawETH",
      "outputs": [],
      "stateMutability": "nonpayable",
      "type": "function"
    }
  ],
  "bytecode": "0x608060405234801561001057600080fd5b5061002d61002261003260201b60201c565b61003a60201b60201c565b6100fe565b600033905090565b60008060009054906101000a900473ffffffffffffffffffffffffffffffffffffffff169050816000806101000a81548173ffffffffffffffffffffffffffffffffffffffff021916908373ffffffffffffffffffffffffffffffffffffffff1602179055508173ffffffffffffffffffffffffffffffffffffffff168173ffffffffffffffffffffffffffffffffffffffff167f8be0079c531659141344cd1fd0a4f28419497f9722a3daafe3b4186f6b6457e060405160405180910390a35050565b6115b68061010d6000396000f3fe60806040526004361061009c5760003560e01c80639ead7222116100645780639ead722214610187578063a8d2021a146101c4578063c9630cb0146101ed578063f14210a614610216578063f2fde38b1461023f578063f6326fb3146102685761009c565b80631f14df69146100a1578063667cb4ba146100de578063715018a61461011c5780638da5cb5b146101335780639776aacf1461015e575b600080fd5b3480156100ad57600080fd5b506100c860048036038101906100c39190610f45565b610272565b6040516100d59190610f9e565b60405180910390f35b3480156100ea57600080fd5b5061010560048036038101906101009190610fb9565b610297565b604051610113929190611004565b60405180910390f35b34801561012857600080fd5b506101316102db565b005b34801561013f57600080fd5b50610148610363565b604051610155919061102d565b60405180910390f35b34801561016a57600080fd5b5061018560048036038101906101809190611048565b61038c565b005b34801561019357600080fd5b506101ae60048036038101906101a991906110b4565b6104c7565b6040516101bb91906110e1565b60405180910390f35b3480156101d057600080fd5b506101eb60048036038101906101e691906110fc565b6104eb565b005b3480156101f957600080fd5b50610214600480360381019061020f91906110fc565b610795565b005b34801561022257600080fd5b5061023d600480360381019061023891906110b4565b6109ae565b005b34801561024b57600080fd5b506102666004803603810190610261919061113c565b610bc4565b005b610270610cbb565b005b6003602052816000526040600020602052806000526040600020600091509150505481565b60026020528060005260406000206000915090508060000154908060010160009054906101000a900473ffffffffffffffffffffffffffffffffffffffff16905082565b6102e3610db4565b73ffffffffffffffffffffffffffffffffffffffff16610301610363565b73ffffffffffffffffffffffffffffffffffffffff1614610357576040517f08c379a000000000000000000000000000000000000000000000000000000000815260040161034e906111c6565b60405180910390fd5b6103616000610dbc565b565b60008060009054906101000a900473ffffffffffffffffffffffffffffffffffffffff16905090565b610394610db4565b73ffffffffffffffffffffffffffffffffffffffff166103b2610363565b73ffffffffffffffffffffffffffffffffffffffff1614610408576040517f08c379a00000000000000000000000000000000000000000000000000000000081526004016103ff906111c6565b60405180910390fd5b60405180604001604052808381526020018273ffffffffffffffffffffffffffffffffffffffff16815250600260008481526020019081526020016000206000820151816000015560208201518160010160006101000a81548173ffffffffffffffffffffffffffffffffffffffff021916908373ffffffffffffffffffffffffffffffffffffffff16021790555090505060018290806001815401808255809150506001900390600052602060002001600090919091909150555050565b600181815481106104d757600080fd5b906000526020600020016000915090505481565b80600073ffffffffffffffffffffffffffffffffffffffff166002600083815260200190815260200160002060010160009054906101000a900473ffffffffffffffffffffffffffffffffffffffff1673ffffffffffffffffffffffffffffffffffffffff1603610591576040517f08c379a000000000000000000000000000000000000000000000000000000000815260040161058890611232565b60405180910390fd5b82600360003373ffffffffffffffffffffffffffffffffffffffff1673ffffffffffffffffffffffffffffffffffffffff1681526020019081526020016000206000848152602001908152602001600020541015610624576040517f08c379a000000000000000000000000000000000000000000000000000000000815260040161061b9061129e565b60405180910390fd5b61068783600360003373ffffffffffffffffffffffffffffffffffffffff1673ffffffffffffffffffffffffffffffffffffffff168152602001908152602001600020600085815260200190815260200160002054610e8090919063ffffffff16565b600360003373ffffffffffffffffffffffffffffffffffffffff1673ffffffffffffffffffffffffffffffffffffffff1681526020019081526020016000206000848152602001908152602001600020819055506002600083815260200190815260200160002060010160009054906101000a900473ffffffffffffffffffffffffffffffffffffffff1673ffffffffffffffffffffffffffffffffffffffff1663a9059cbb33856040518363ffffffff1660e01b815260040161074c9291906112be565b6020604051808303816000875af115801561076b573d6000803e3d6000fd5b505050506040513d601f19601f8201168201806040525081019061078f919061131f565b50505050565b80600073ffffffffffffffffffffffffffffffffffffffff166002600083815260200190815260200160002060010160009054906101000a900473ffffffffffffffffffffffffffffffffffffffff1673ffffffffffffffffffffffffffffffffffffffff160361083b576040517f08c379a000000000000000000000000000000000000000000000000000000000815260040161083290611232565b60405180910390fd5b6002600083815260200190815260200160002060010160009054906101000a900473ffffffffffffffffffffffffffffffffffffffff1673ffffffffffffffffffffffffffffffffffffffff166323b872dd3330866040518463ffffffff1660e01b81526004016108ae9392919061134c565b6020604051808303816000875af11580156108cd573d6000803e3d6000fd5b505050506040513d601f19601f820116820180604052508101906108f1919061131f565b5061095583600360003373ffffffffffffffffffffffffffffffffffffffff1673ffffffffffffffffffffffffffffffffffffffff168152602001908152602001600020600085815260200190815260200160002054610e9690919063ffffffff16565b600360003373ffffffffffffffffffffffffffffffffffffffff1673ffffffffffffffffffffffffffffffffffffffff168152602001908152602001600020600084815260200190815260200160002081905550505050565b80600360003373ffffffffffffffffffffffffffffffffffffffff1673ffffffffffffffffffffffffffffffffffffffff16815260200190815260200160002060007f45544800000000000000000000000000000000000000000000000000000000008152602001908152602001600020541015610a61576040517f08c379a0000000000000000000000000000000000000000000000000000000008152600401610a58906113cf565b60405180910390fd5b610ae481600360003373ffffffffffffffffffffffffffffffffffffffff1673ffffffffffffffffffffffffffffffffffffffff16815260200190815260200160002060007f4554480000000000000000000000000000000000000000000000000000000000815260200190815260200160002054610e8090919063ffffffff16565b600360003373ffffffffffffffffffffffffffffffffffffffff1673ffffffffffffffffffffffffffffffffffffffff16815260200190815260200160002060007f45544800000000000000000000000000000000000000000000000000000000008152602001908152602001600020819055503373ffffffffffffffffffffffffffffffffffffffff1681604051610b7c90611420565b60006040518083038185875af1925050503d8060008114610bb9576040519150601f19603f3d011682016040523d82523d6000602084013e610bbe565b606091505b50505050565b610bcc610db4565b73ffffffffffffffffffffffffffffffffffffffff16610bea610363565b73ffffffffffffffffffffffffffffffffffffffff1614610c40576040517f08c379a0000000000000000000000000000000000000000000000000000000008152600401610c37906111c6565b60405180910390fd5b600073ffffffffffffffffffffffffffffffffffffffff168173ffffffffffffffffffffffffffffffffffffffff1603610caf576040517f08c379a0000000000000000000000000000000000000000000000000000000008152600401610ca6906114a7565b60405180910390fd5b610cb881610dbc565b50565b610d3e34600360003373ffffffffffffffffffffffffffffffffffffffff1673ffffffffffffffffffffffffffffffffffffffff16815260200190815260200160002060007f4554480000000000000000000000000000000000000000000000000000000000815260200190815260200160002054610e9690919063ffffffff16565b600360003373ffffffffffffffffffffffffffffffffffffffff1673ffffffffffffffffffffffffffffffffffffffff16815260200190815260200160002060007f4554480000000000000000000000000000000000000000000000000000000000815260200190815260200160002081905550565b600033905090565b60008060009054906101000a900473ffffffffffffffffffffffffffffffffffffffff169050816000806101000a81548173ffffffffffffffffffffffffffffffffffffffff021916908373ffffffffffffffffffffffffffffffffffffffff1602179055508173ffffffffffffffffffffffffffffffffffffffff168173ffffffffffffffffffffffffffffffffffffffff167f8be0079c531659141344cd1fd0a4f28419497f9722a3daafe3b4186f6b6457e060405160405180910390a35050565b60008183610e8e91906114f6565b905092915050565b60008183610ea4919061152a565b905092915050565b600080fd5b600073ffffffffffffffffffffffffffffffffffffffff82169050919050565b6000610edc82610eb1565b9050919050565b610eec81610ed1565b8114610ef757600080fd5b50565b600081359050610f0981610ee3565b92915050565b6000819050919050565b610f2281610f0f565b8114610f2d57600080fd5b50565b600081359050610f3f81610f19565b92915050565b60008060408385031215610f5c57610f5b610eac565b5b6000610f6a85828601610efa565b9250506020610f7b85828601610f30565b9150509250929050565b6000819050919050565b610f9881610f85565b82525050565b6000602082019050610fb36000830184610f8f565b92915050565b600060208284031215610fcf57610fce610eac565b5b6000610fdd84828501610f30565b91505092915050565b610fef81610f0f565b82525050565b610ffe81610ed1565b82525050565b60006040820190506110196000830185610fe6565b6110266020830184610ff5565b9392505050565b60006020820190506110426000830184610ff5565b92915050565b6000806040838503121561105f5761105e610eac565b5b600061106d85828601610f30565b925050602061107e85828601610efa565b9150509250929050565b61109181610f85565b811461109c57600080fd5b50565b6000813590506110ae81611088565b92915050565b6000602082840312156110ca576110c9610eac565b5b60006110d88482850161109f565b91505092915050565b60006020820190506110f66000830184610fe6565b92915050565b6000806040838503121561111357611112610eac565b5b60006111218582860161109f565b925050602061113285828601610f30565b9150509250929050565b60006020828403121561115257611151610eac565b5b600061116084828501610efa565b91505092915050565b600082825260208201905092915050565b7f4f776e61626c653a2063616c6c6572206973206e6f7420746865206f776e6572600082015250565b60006111b0602083611169565b91506111bb8261117a565b602082019050919050565b600060208201905081810360008301526111df816111a3565b9050919050565b7f546f6b656e20646f6573206e6f74206578697374000000000000000000000000600082015250565b600061121c601483611169565b9150611227826111e6565b602082019050919050565b6000602082019050818103600083015261124b8161120f565b9050919050565b7f42616c616e6365206973206e6f742073756666696369656e7400000000000000600082015250565b6000611288601983611169565b915061129382611252565b602082019050919050565b600060208201905081810360008301526112b78161127b565b9050919050565b60006040820190506112d36000830185610ff5565b6112e06020830184610f8f565b9392505050565b60008115159050919050565b6112fc816112e7565b811461130757600080fd5b50565b600081519050611319816112f3565b92915050565b60006020828403121561133557611334610eac565b5b60006113438482850161130a565b91505092915050565b60006060820190506113616000830186610ff5565b61136e6020830185610ff5565b61137b6040830184610f8f565b949350505050565b7f4e6f7420656e6f7567682062616c616e63650000000000000000000000000000600082015250565b60006113b9601283611169565b91506113c482611383565b602082019050919050565b600060208201905081810360008301526113e8816113ac565b9050919050565b600081905092915050565b50565b600061140a6000836113ef565b9150611415826113fa565b600082019050919050565b600061142b826113fd565b9150819050919050565b7f4f776e61626c653a206e6577206f776e657220697320746865207a65726f206160008201527f6464726573730000000000000000000000000000000000000000000000000000602082015250565b6000611491602683611169565b915061149c82611435565b604082019050919050565b600060208201905081810360008301526114c081611484565b9050919050565b7f4e487b7100000000000000000000000000000000000000000000000000000000600052601160045260246000fd5b600061150182610f85565b915061150c83610f85565b92508282101561151f5761151e6114c7565b5b828203905092915050565b600061153582610f85565b915061154083610f85565b9250827fffffffffffffffffffffffffffffffffffffffffffffffffffffffffffffffff03821115611575576115746114c7565b5b82820190509291505056fea264697066735822122002951c7060bb12978ac54a1591235305343cd1ba430b4ba93136d40dc91f761e64736f6c634300080d0033",
  "linkReferences": {},
  "deployedLinkReferences": {}
}